:020000040800F2
:1000000010070020ED010008F10A00085908000857
:10001000ED0A00089F02000881130008000000009C
:10002000000000000000000000000000D30D0008E8
:10003000F704000800000000650B00081510000818
:10004000070200080702000807020008070200086C
:10005000070200080702000807020008070200085C
:10006000070200080702000807020008070200084C
:10007000070200080702000807020008070200083C
:10008000A5020008C50200080702000807020008D0
:10009000070200080702000807020008070200081C
:1000A000070200080702000807020008070200080C
:1000B0000702000885100008070200080702000870
:1000C00007020008070200080702000807020008EC
:1000D000070200080702000899110008070200083B
:1000E00007020008070200080702000800000000DD
:1000F0000000000000000000000000000000000000
:1001000000000000000000000702000807020008CD
:10011000070200080702000807020008070200089B
:10012000070200080702000807020008070200088B
:10013000070200080702000807020008070200087B
:10014000070200080702000807020008070200086B
:1001500000F002F800F03AF80AA090E8000C82449F
:100160008344AAF10107DA4501D100F02FF8AFF27C
:10017000090EBAE80F0013F0010F18BFFB1A43F085
:10018000010318471C1500003C150000103A24BF5D
:1001900078C878C1FAD8520724BF30C830C144BFEC
:1001A00004680C607047000000230024002500262E
:1001B000103A28BF78C1FBD8520728BF30C148BFCA
:1001C0000B6070471FB51FBD10B510BD00F031F8B2
:1001D0001146FFF7F7FF01F09DF900F04FF803B467
:1001E000FFF7F2FF03BC00F053F800000948804716
:1001F00009480047FEE7FEE7FEE7FEE7FEE7FEE709
:10020000FEE7FEE7FEE7FEE704480549054A064B20
:10021000704700001910000851010008100100206B
:1002200010070020100300201003002070477047C3
:100230007047754600F028F8AE46050069465346FB
:1002400020F00700854618B020B5FFF7DDFFBDE8B8
:1002500020404FF000064FF000074FF000084FF02D
:10026000000B21F00701AC46ACE8C009ACE8C009BE
:10027000ACE8C009ACE8C0098D4670470446AFF34E
:1002800000802046FFF7ABFF00487047B000002019
:1002900001491820ABBEFEE726000200704700BFF0
:1002A000FEE7000010B54FF4001000F0E7F8012859
:1002B00004D103490870400500F01CF810BD00008F
:1002C0001600002010B54FF0007000F0D7F801289C
:1002D0000AD10020054908704FF0007000F00AF8BC
:1002E0000021034800F014F810BD000014000020A5
:1002F0008000024000F0805111B10349086001E024
:1003000002494860704700000404024000000240B7
:1003100021B1026842F00102026004E002684FF677
:10032000FE731A400260704701684FF6FE7211407A
:1003300001600021016041608160C1604B498842D9
:1003400008D14A490839496841F00F01474A083A3B
:1003500051608AE045491431884208D1434908393F
:10036000496841F0F001414A083A51607DE03F4957
:100370002831884208D13D490839496841F4706103
:100380003A4A083A516070E038493C31884208D115
:1003900036490839496841F47041344A083A516095
:1003A00063E032495031884208D130490839496800
:1003B00041F470212D4A083A516056E02B496431CE
:1003C000884208D129490839496841F47001274A0F
:1003D000083A516049E025497831884208D12349DB
:1003E0000839496841F07061204A083A51603CE0A0
:1003F0001F49884206D1011F096841F00F01021F01
:10040000116032E01A491431884208D11849091F95
:10041000096841F0F001164A121F116025E01449E5
:100420002831884208D11249091F096841F47061D6
:100430000F4A121F116018E00D493C31884208D163
:100440000B49091F096841F47041094A121F1160E4
:100450000BE007495031884207D10549091F096857
:1004600041F47021024A121F1160704708000240D7
:10047000080402400146486880B2704701460020E7
:10048000002201F0805313B1054B1A6801E0054BBF
:100490001A6802EA01030BB1012000E00020704756
:1004A00000040240000002401AB103680B430360DD
:1004B00002E003688B430360704710B500220268B6
:1004C00047F6F0739A430C6A8B6823430C69234305
:1004D0004C6923438C692343CC6923434C6A2343EF
:1004E0008C6A23431A430260CB6843600B688360C5
:1004F0004B68C36010BD704710B54FF4E04102482F
:1005000000F0A8F910BD00000014014010B54FF430
:10051000E041024800F09CF910BD000000140140C9
:100520000149C860704700000020024030B5044611
:1005300004254FF4302000F0A5F80546042D17D10E
:100540000C48006940F002000A490861084644610D
:10055000006940F0400008614FF4302000F092F84C
:1005600005460448006941F6FD71084001490861EB
:10057000284630BD0020024004200B49C96801F024
:10058000010109B101200EE00749C96801F0040129
:1005900009B1022007E00449C96801F0100109B15E
:1005A000032000E004207047002002400348006957
:1005B00040F08000014908617047000000200240BF
:1005C00070B504460D460426F00200F05BF80646BE
:1005D000042E11D10948006940F001000749086163
:1005E0002580F00200F04EF806460448006941F606
:1005F000FE71084001490861304670BD002002408C
:1006000078B506460C46042500200090E80200F06C
:1006100039F80546042D24D11348006940F0010043
:10062000114908613480E80200F02CF80546042DD9
:1006300010D1B01C0090200C00990880E80200F056
:1006400021F805460848006941F6FE710840064950
:10065000086106E00448006941F6FE71084002495D
:100660000861284678BD0000002002400248034986
:1006700048600348486070472301674500200240F6
:10068000AB89EFCD00B502460423FFF775FF0346A3
:1006900003E0FFF771FF0346521E012B01D1002A30
:1006A000F7D102B90523184600BD2DE9F0410246F5
:1006B00000250026002000230024002791F803C015
:1006C0000CF00F0591F803C00CF0100CBCF1000FFA
:1006D00003D091F802C04CEA050591F800C0BCF1C6
:1006E000000F31D0146800202BE04FF0010C0CFA01
:1006F00000F3B1F800C00CEA03069E4220D183004B
:100700004FF00F0C0CFA03F7BC4305FA03FC4CEA5C
:10071000040491F803C0BCF1280F06D14FF0010C7E
:100720000CFA00FCC2F814C00AE091F803C0BCF156
:10073000480F05D14FF0010C0CFA00FCC2F810C0B4
:10074000401C0828D1D31460B1F800C0BCF1FF0FE1
:1007500034DD546800202EE000F1080C4FF0010851
:1007600008FA0CF3B1F800C00CEA03069E4221D14E
:1007700083004FF00F0C0CFA03F7BC4305FA03FC9F
:100780004CEA040491F803C0BCF1280F05D100F134
:10079000080C08FA0CF8C2F8148091F803C0BCF1F8
:1007A000480F07D100F1080C4FF0010808FA0CF8C7
:1007B000C2F81080401C0828CED35460BDE8F081F8
:1007C000F0B50A46002300240021002500F0004671
:1007D000B6F1004F02D11D4EF16901E01B4E716868
:1007E000C0F3034583B200F44016B6F5401F08D1AC
:1007F00021F07061154E766826F07066134F7E60AA
:1008000012E000F48016B6F5801F06D1032606FA22
:1008100005F4A14341F0706106E0460D360103FA8C
:1008200006F6B14341F0706122B1460D360103FA7C
:1008300006F6314300F00046B6F1004F02D1034EF8
:10084000F16101E0014E7160F0BD00000000014067
:10085000416170470161704700BFFEE710B500F0CD
:10086000BFF800F061F800F003F800F089F810BD5F
:1008700000B58BB00121084600F076F926480090BB
:10088000264801900020029032200390002004901E
:100890008020059000200690079008904FF40050AB
:1008A000099000200A9069461D48FFF706FE0121C5
:1008B0001B48FFF72DFD012202211948FFF7F4FD27
:1008C00017481430FFF730FD134800901548019089
:1008D0001020029064200390002004908020059056
:1008E00000200690079008904FF4005009900020D7
:1008F0000A9069460A481430FFF7DFFD0122022101
:1009000007481430FFF7D0FD012105481430FFF7E8
:10091000FFFC0BB000BD0000044400407C00002040
:100920006C0002401800002008B526208DF8000059
:1009300003208DF801008DF8020001208DF80300DE
:10094000684600F0D7F811208DF8000003208DF8DC
:1009500001008DF8020001208DF80300684600F0C8
:10096000C9F810208DF8000003208DF801008DF8E3
:10097000020001208DF80300684600F0BBF808BDB6
:100980001FB5684600F0F0FC4FF4E1300090002005
:10099000ADF80400ADF80600ADF808000C20ADF885
:1009A0000A000020ADF80C0069460C4800F070FC0D
:1009B000012240F22441094800F045FC0122402177
:1009C000064800F00DFC01228021044800F008FCDC
:1009D0000121024800F0F8FB1FBD00000044004068
:1009E00008B50121202000F0DFF80121084600F0C1
:1009F000DBF80121480400F0C7F801210820FFF7C7
:100A0000DFFE2020ADF8000018208DF80300032041
:100A10008DF8020069460748FFF747FE4020ADF811
:100A2000000004208DF8030069460248FFF73DFEF0
:100A300008BD00000014014010B500F003F800F0FC
:100A400023F810BD0EB50121022000F09DF86320AF
:100A5000ADF8040041F61F40ADF800000020ADF8ED
:100A60000600ADF802006946064800F043FB01228B
:100A70001146044800F034FB0121024800F013FB4A
:100A80000EBD00000004004008B51D208DF80000D8
:100A900001208DF8010003208DF8020001208DF85F
:100AA0000300684600F026F808BD10B5FFF7C4FF44
:100AB00010BD10B5FFF7D2FE10BD000008B5012132
:100AC000202000F071F84FF4E040ADF80000032062
:100AD0008DF8020010208DF8030069460248FFF7E8
:100AE000E4FDFFF709FD08BD0014014000BFFEE76B
:100AF0007047000070B5002100230F22C47804B3B2
:100B0000154C246804F4E064C4F5E064210AC1F1E2
:100B10000403CA40447804FA03F184781440214362
:100B200009010E4C0678A155047804F01F05012434
:100B3000AC4005786D11AD0005F1E025C5F8004128
:100B400009E0047804F01F050124AC40044D067848
:100B5000761145F8264070BD0CED00E000E400E0A1
:100B600080E100E07047000029B1064A5269024363
:100B7000044B5A6104E0034A52698243014B5A61B3
:100B8000704700000010024029B1064AD2690243B2
:100B9000044BDA6104E0034AD2698243014BDA6113
:100BA000704700000010024029B1064A92690243D2
:100BB000044B9A6104E0034A92698243014B9A61B3
:100BC00070470000001002402DE9F0410021002292
:100BD000002500230026002400278C46DFF86081D2
:100BE000D8F8048008F00C0121B1042907D00829A5
:100BF00059D109E0DFF84C81C0F8008058E0DFF8F7
:100C00004881C0F8008053E0DFF83481D8F80480D0
:100C100008F47012DFF82881D8F8048008F48035D1
:100C2000920C0D2A01D0921C00E0062235B9DFF8A3
:100C30001C8102FB08F8C0F8008033E0DFF8008177
:100C4000D8F82C8008F48036DFF8F480D8F82C80AF
:100C500008F00F0808F1010446B9DFF8EC80B8FB92
:100C6000F4F808FB02F8C0F800801BE0DFF8D08041
:100C7000D8F82C80C8F3031808F10107DFF8C0800A
:100C8000D8F82C80C8F3032808F1020CDFF8B880EC
:100C9000B8FBF7F808FB0CF8B8FBF4F808FB02F80F
:100CA000C0F8008004E0DFF89C80C0F8008000BF3E
:100CB00000BFDFF88C80D8F8048008F0F001090943
:100CC000DFF88C8018F80130D0F8008028FA03F89B
:100CD000C0F80480DFF86880D8F8048008F4E06188
:100CE000090ADFF86C8018F80130D0F8048028FA7F
:100CF00003F8C0F80880DFF84880D8F8048008F4CA
:100D00006051C90ADFF8488018F80130D0F8048033
:100D100028FA03F8C0F80C80DFF82480D8F80480A3
:100D200008F44041890BDFF82C8018F80130D0F826
:100D30000C80B8FBF3F8C0F81080BDE8F08100002B
:100D40000010024000127A0040787D0100093D0049
:100D5000000000201000002070B506460025134852
:100D6000007801281FD11248FFF784FBC0F1320040
:100D7000C5B2002D17DD00210D48FFF7C9FA002488
:100D800004E00C48005D3055601CC4B2AC42F8DB96
:100D9000002006490870322005496C390867012196
:100DA0000348FFF7B5FA284670BD00001600002082
:100DB0006C0002407C00002070B504460D46002601
:100DC00024B92846FFF7C8FF064600BF00BF3046DB
:100DD00070BD70472DE9F04180460D4600272E4832
:100DE0000078012836D100212C48FFF791FA2B48D2
:100DF000FFF740FBC6B22A480078801BC7B2002428
:100E000005E0E0192749085C0855601CC4B2B442EB
:100E1000F7DBA819642802DDC6F16400C5B200241E
:100E200006E018F80400A1191E4A5054601CC4B210
:100E3000AC42F6DB2F46A81919490870A8191749C2
:100E4000091D086001201449087001211348FFF7AB
:100E50005FFA1DE000211148FFF75AFA642D00DD0A
:100E60006425002405E018F804000E490855601CAC
:100E7000C4B2AC42F7DB2F46094805700748001D95
:100E8000056001200449087001210448FFF740FA79
:100E90003846BDE8F08100001400002080000240C8
:100EA00015000020180000202DE9F04104460D46F1
:100EB000164600272CB931462846FFF78BFF074618
:100EC00000BF00BF3846BDE8F08110B500F002F861
:100ED00010BD00000CB50020019000903F48006854
:100EE00040F480303D49086000BF3C48006800F491
:100EF000003000900198401C0190009818B90198AA
:100F0000B0F5A06FF1D13548006800F4003010B1A1
:100F10000120009001E000200090009801285CD1A1
:100F20002F48006840F010002D490860084600680E
:100F300020F0030008600846006840F002000860E6
:100F40002648406825494860084640684860084689
:100F5000406840F4806048600846C06A2149084003
:100F60001E49C8620846C06A1F4908431B49C86237
:100F70000846006840F08060086000BF17480068BD
:100F800000F000600028F9D01448406820F47C107C
:100F9000124948600846406840F4E8104860084636
:100FA000006840F08070086000BF0C48006800F0E6
:100FB00000700028F9D00948406820F00300074974
:100FC00048600846406840F00200486000BF03489F
:100FD000406800F00C000828F9D10CBD0010024058
:100FE0000020024000F0FEFF44060100042808D162
:100FF0004FF0E021096941F004014FF0E022116156
:1010000007E04FF0E021096921F004014FF0E022F0
:10101000116170477047000010B51648006840F035
:101020000100144908600846406813490840114906
:10103000486008460068114908400E4908600846A3
:10104000006820F4802008600846406820F4FE0014
:1010500048600846006820F0A05008604FF47F0008
:1010600088600020C862FFF730FF4FF0006004493D
:10107000086010BD001002400000FFF0FFFFF6FE08
:1010800008ED00E010B50121044800F018F818B18F
:101090000121024800F004F810BD000000040040E7
:1010A000CA430282704721B1028842F001020280E5
:1010B00004E002884FF6FE731A400280704730B594
:1010C0000246002000230024158A05EA01039589C1
:1010D00005EA010413B10CB1012000E0002030BD8D
:1010E0001AB183890B43838102E083898B43838117
:1010F00070470000002202881D4B98420ED01D4B05
:1011000098420BD0B0F1804F08D01B4B984205D0CD
:101110001A4B984202D01A4B984204D14FF68F7363
:101120001A404B881A43174B984207D0164B9842E7
:1011300004D04FF6FF431A40CB881A4302808B88B5
:1011400083850B8803850A4B98420BD0094B984244
:1011500008D00E4B984205D00D4B984202D00D4B53
:10116000984201D10B7A03860123838270470000E5
:10117000002C014000340140000400400008004001
:10118000000C0040001000400014004000400140EE
:10119000004401400048014010B5002440F22441C1
:1011A000074800F026F848B105480088C4B2044852
:1011B000001D0088C4B201200249087010BD000063
:1011C000004400401600002021B1828942F4005200
:1011D000828104E082894DF6FF731A408281704754
:1011E0001AB1838A0B43838202E0838A8B43838212
:1011F000704770B50246002400230025002040F609
:101200006A16B14200D100BFC1F3421501F01F03BD
:10121000012606FA03F3012D02D19689334006E038
:10122000022D02D1168A334001E0968A33400C1217
:10123000012606FA04F41688344013B10CB10120DB
:1012400000E0002070BDF0B5034600240026002514
:10125000002040F66A17B94200D100BF1846C1F31A
:10126000421401F01F06012707FA06F5012C01D1EF
:101270000C3004E0022C01D1103000E014301AB11F
:1012800007682F43076002E00768AF430760F0BDBF
:101290002DE9F04786B005460E460024A24600BF61
:1012A000A1460027B08900B100BF2F462C8A4CF61A
:1012B000FF700440F08804432C82AC894EF6F31092
:1012C0000440B08831890843718908430443AC81E4
:1012D000AC8A4FF6FF400440B0890443AC8201A8B9
:1012E000FFF772FC1F48874202D1DDF810A001E031
:1012F000DDF80CA0A88900F4004040B10AEBCA0058
:1013000000EB0A1031684900B0FBF1F807E00AEB86
:10131000CA0000EB0A1031688900B0FBF1F86420C4
:10132000B8FBF0F004012009642101FB1089A889B1
:1013300000F4004040B1322000EBC900B0FBF1F0F6
:1013400000F00700044308E0322000EB091064219C
:10135000B0FBF1F000F00F0004432C8106B0BDE8B3
:10136000F0870000003801404FF416510160002161
:101370008180C18001810C214181002181817047E0
:1013800000BFFEE7024609B900207047B2F1006FC6
:1013900002D30948824201D30020F6E75018064BD9
:1013A000984201D30020F0E702F0010008B10020CC
:1013B000EBE70120E9E70000C4FF030870B503462E
:1013C0000C4604FB0231A1F10065EE0AA3F10065B1
:1013D000B6EBD52F05D0CD1A022606EBD525E8B2FF
:1013E00004E0CD1A012606EBD525E8B270BD10B594
:1013F0006FF00400FFF7FAFD10BD000010B50146C4
:10140000B1F5E16F24D201EBC1034FF47A74634369
:101410004FF0E02463610023A36123461B6943F07E
:101420000103236100BF4FF0E023186900F00103BE
:101430001BB100F48033002BF5D04FF0E0231B6983
:1014400023F001034FF0E02423610023A36152E065
:10145000002220E0284B4FF0E02463610023A361C9
:1014600023461B6943F00103236100BF4FF0E023D3
:10147000186900F001031BB100F48033002BF5D094
:101480004FF0E0231B6923F001034FF0E0242361B8
:101490000023A361521C4FF4E163B1FBF3F39342C9
:1014A000D8D84FF4E163B1FBF3F403FB141303EB5F
:1014B000C3034FF47A7463434FF0E0246361002365
:1014C000A36123461B6943F00103236100BF4FF072
:1014D000E023186900F001031BB100F48033002BF6
:1014E000F5D04FF0E0231B6923F001034FF0E02417
:1014F00023610023A36110BD4031F70010B50346FE
:10150000002004E033F8104021F81040401C9042C5
:10151000F8D310BDA6B01424FFF769FFFFF7C5FA92
:10152000FFF7C7FAFFF7CAFA002405E004F17000DC
:101530000FA921F81400641C142CF7DB14220FA946
:10154000144800F0A2F824E0FEF7E0FF4FF47A70B0
:10155000FFF754FF19A90020FFF72EFC98B11422C1
:1015600005A90C48FFF7CAFF002405E005A810F8FC
:1015700014000DF80400641C142CF7DB14226946D7
:101580000020FFF791FCFEF7B7FF4FF4FA70FFF76A
:1015900035FFD9E7ACFF03082DE9F0470646894639
:1015A00017461D4639463046FFF7ECFE10B90020BD
:1015B000BDE8F0872A4639463046FFF7FFFE8046F1
:1015C000FFF754F83520FEF7ABFF00240CE04FF492
:1015D000006101FB0460FEF7A9FF042803D0FEF7B9
:1015E000E5FF0020E4E7641C4445F0D3022D02D05F
:1015F000042D12D108E03A464946304600F013F86F
:1016000008B90020D4E709E03A464946304600F0E0
:1016100023F808B90020CBE700E000BF00BFFEF7C9
:10162000C5FF0120C4E72DE9F04105460E461746E7
:1016300000240DE036F8141005EB4400FEF7C0FF5F
:10164000042804D0FEF7B2FF0020BDE8F081641C3E
:10165000BC42EFD30120F8E72DE9F04105460E46E4
:10166000174600240DE056F8241005EB8400FEF721
:10167000C7FF042804D0FEF799FF0020BDE8F081E1
:10168000641CBC42EFD30120F8E770B504460D4658
:1016900016460223324629462046FFF77DFF70BDDD
:1016A000C016000800000020180000008C0100088F
:1016B000D816000818000020F8060000A80100084D
:1016C00000000000010203040102030406070809E8
:0816D0000204060800000000FE
:04000005080001519D
:00000001FF
